:100000000C945F030C947C030C947C030C947C0391
:100010000C947C030C947C030C947C030C947C0364
:100020000C947C030C947C030C947C030C947C0354
:100030000C947C030C947C030C947C030C947C0344
:100040000C947C030C947C030C94BF100C94EF1064
:100050000C947C030C947C030C947C030C947C0324
:100060000C947C030C947C032D124212491216123C
:100070006912711278127F128712B712E712F0120A
:100080002112010000000101000009000000010030
:10009000000001010002000000010200005F0000FA
:1000A000000100000000000000000043000000000C
:1000B0000000000000050000803700000000000084
:1000C0000101010000003F0F6F1283396F12833965
:1000D000FFFFFF7F00000080057F00000000FFFFA2
:1000E000FF0F000000F0FFFFFF1F000000E0FFFF18
:1000F000FF3F000000C0FFFFFF7F00000080030003
:100100000000010200005F0000000200000000008B
:100110000000000043000200000000000000050194
:100120000080380000000000000101000000003FD6
:100130000F6F1283396F128339FFFFFF7F000000BA
:1001400080057F00000000FFFFFF0F000000F0FFB0
:10015000FFFF1F000000E0FFFFFF3F000000C0FFA7
:10016000FFFF7F0000008004000000010200005F2C
:100170000000000300000000000000000043000039
:1001800000000000000000050000803F00000000AB
:1001900000000101010000003F0F6F1283396F1250
:1001A0008339FFFFFF7F00000080057F0000000013
:1001B000FFFFFF0F000000F0FFFFFF1F000000E047
:1001C000FFFFFF3F000000C0FFFFFF7F0000008037
:1001D00005000000010200005F00000004000000B4
:1001E00000000000000043000200000000000000CA
:1001F000050100803800000000000001010000003F
:10020000003F0F6F1283396F128339FFFFFF7F00AA
:10021000000080057F00000000FFFFFF0F000000CE
:10022000F0FFFFFF1F000000E0FFFFFF3F000000A6
:10023000C0FFFFFF7F0000008006000000010200F9
:10024000005F000000050000000000000000004307
:1002500000020000000200000005FEFF7F390000E0
:10026000000000000101000000003F0F6F12833901
:100270006F128339FFFFFF7F00000080057F0000C1
:100280000000FFFFFF0F000000F0FFFFFF1F000056
:1002900000E0FFFFFF3F000000C0FFFFFF7F000006
:1002A000008007000000010200005F00000006005F
:1002B00000000000000000004300000000000000FB
:1002C000000005000080370000000000000101016F
:1002D0000000003F0F6F1283396F128339FFFFFF59
:1002E0007F00000080057F00000000FFFFFF0F007F
:1002F0000000F0FFFFFF1F000000E0FFFFFF3F00D6
:100300000000C0FFFFFF7F00000080080000000128
:1003100004000011000000070000000000000000C1
:100320000001409C011F09000000010400001100B1
:100330000000080000000000000000000143000170
:10034000030A000000010400001100000009000081
:100350000000000000000001430001030B0000004A
:10036000010900004A000000010000000000000038
:100370000000000000000000000000000005000078
:10038000803700000000000001016F128339000077
:100390000000FFFFFF7F00000080051F000000003D
:1003A000FFFFFF0F000000F0FFFFFF7F0000008055
:1003B0000C000000010900004A00000002000000DB
:1003C000000000000000000000000000000000002D
:1003D00000050000803700000000000001016F12DE
:1003E000833900000000FFFFFF7F00000080051F31
:1003F00000000000FFFFFF0F000000F0FFFFFF7F85
:10040000000000800D000000010900004A0000000B
:1004100003000000000000000000000000000000D9
:100420000000000000050000803700000000000010
:1004300001016F12833900000000FFFFFF7F000001
:100440000080051F00000000FFFFFF0F000000F00C
:10045000FFFFFF7F000000800E0000000109000088
:100460004A0000000400000000000000000000003E
:1004700000000000000000000005000080370000C0
:100480000000000001016F12833900000000FFFF2F
:10049000FF7F00000080051F00000000FFFFFF0F2E
:1004A000000000F0FFFFFF7F000000800F00000051
:1004B000010B000013000000050000000000000018
:1004C00000000000014300010310000000010B00C8
:1004D0000013000000060000000000000000000003
:1004E00000014300010311000000010B0000130094
:1004F00000000500000000000000000000000143B3
:100500000001031200000001140000480001000176
:10051000050102104D6963726F53616D2053616D67
:10052000706C6500030B4D4943524F53414D2D31C3
:1005300000040B4D4943524F53414D2D31000506E8
:100540005049434D4700060D414142424343444414
:100550004545464600130000000114000048000114
:100560000001050102104D6963726F53616D2053E4
:10057000616D706C6500030B4D4943524F53414D03
:100580002D3100040B4D4943524F53414D2D310045
:1005900005065049434D4700060D41414242434341
:1005A0004444454546460014000000010F00001079
:1005B0000000000100000000000001010001000037
:1005C0000015000000011100003000000001005A79
:1005D000310000010001656E00004D006F007400E5
:1005E00069006F006E0043006F006E0074007200BF
:1005F0006F006C006C0065007200001600000001C6
:100600001100003000000001005A3100000100011B
:10061000656E00004D006F00740069006F006E0091
:1006200043006F006E00740072006F006C006C007D
:10063000650072000017000000010800007E000045
:1006400000409C5A31000001000005010101656E67
:100650000000490064006C00650000020201656E44
:100660000000520075006E006E0069006E006700A9
:1006700000030301656E000044006F006E0065001A
:1006800000040401656E000043006F006E0064000A
:100690006900740069006F006E00530074006F0001
:1006A000700000050501656E0000450072007200D3
:1006B0006F007200530074006F007000000011247E
:1006C0001FBECFEFD8E0DEBFCDBF13E0A0E0B1E0AA
:1006D000E0EBF8E202C005900D92A830B107D9F71F
:1006E00023E0A8E0B3E001C01D92AA39B207E1F708
:1006F0000E9413140C9439140C940000909310036E
:1007000080930F030895EF92FF920F931F93CF935F
:10071000DF937C018B01EA0167E0640F80910F0396
:10072000909110030E94181343E050E0B7018091AC
:100730000F03909110030E949913AE01B8018091AC
:100740000F03909110030E94991380910F039091D1
:100750001003DF91CF911F910F91FF90EF900C94B8
:10076000ED132F923F924F925F926F927F928F92F2
:100770009F92AF92BF92CF92DF92EF92FF920F9330
:100780001F93CF93DF93CDB7DEB7C058D1090FB613
:10079000F894DEBF0FBECDBF80910F039091100380
:1007A0000E94F111882309F437C380910F039091BF
:1007B00010030E94F6118C01DC0112968C91803599
:1007C00009F40AC120900F0330901003813509F01D
:1007D000E6C06E961FAE6E9780910E03882309F4D3
:1007E00043C2813009F0DBC0D1011B96FC90FF2091
:1007F00009F41BC381E86E968FAF6E9763E1C10168
:100800000E941813F8018081806868968FAF6897FE
:1008100041E050E0BE01695A7F4F80910F039091F3
:1008200010030E949913D80111968C9167968FAF8F
:10083000679741E050E0BE016A5A7F4F80910F03F5
:10084000909110030E949913F801828166968FAFF0
:10085000669741E050E0BE016B5A7F4F80910F03D5
:10086000909110030E94991341E050E0BE01635A39
:100870007F4F80910F03909110030E9499131E8A5D
:1008800041E050E0BE016A5E7F4F80910F0390917E
:1008900010030E9499131D8A41E050E0BE016B5E77
:1008A0007F4F80910F03909110030E949913188E2F
:1008B00041E050E0BE01685E7F4F80910F03909150
:1008C00010030E9499131F8A41E050E0BE01695E47
:1008D0007F4F80910F03909110030E9499131A8EFD
:1008E00041E050E0BE01665E7F4F80910F03909122
:1008F00010030E949913198E41E050E0BE01675E1B
:100900007F4F80910F03909110030E9499131C8ECA
:1009100041E050E0BE01645E7F4F80910F039091F3
:1009200010030E9499131B8E41E050E0BE01655EEA
:100930007F4F80910F03909110030E949913659649
:100940001FAE659741E050E0BE016C5A7F4F809129
:100950000F03909110030E9499131E8E41E050E006
:10096000BE01625E7F4F80910F03909110030E9441
:1009700099131D8E41E050E0BE01635E7F4F809170
:100980000F03909110030E94991380910F0390918F
:1009900010030E94ED1320900F0330901003C1014B
:1009A0000E94F611C058DF4F0FB6F894DEBF0FBE9D
:1009B000CDBFDF91CF911F910F91FF90EF90DF900E
:1009C000CF90BF90AF909F908F907F906F905F90EF
:1009D0004F903F902F90089560E380910F03909186
:1009E00010030E941813F80180818068E0968FAF91
:1009F000E09741E050E0BE0161597F4F80910F03C5
:100A0000909110030E949913D80111968C91AF9682
:100A10008FAFAF9741E050E0BE0162597F4F8091A8
:100A20000F03909110030E949913F8018281AE96F2
:100A30008FAFAE9741E050E0BE0163597F4F809188
:100A40000F03909110030E949913AD961FAEAD97BE
:100A500041E050E0BE0164597F4F80910F039091B7
:100A600010030E949913AC961FAEAC9741E050E082
:100A7000BE0165597F4F80910F03909110030E9432
:100A800099130DE010E0AB961FAEAB9741E050E03C
:100A9000BE0166597F4F80910F03909110030E9411
:100AA00099130150110979F70DE010E0AA961FAED5
:100AB000AA9741E050E0BE0167597F4F80910F0334
:100AC000909110030E9499130150110979F78091B8
:100AD0000201109103016F968FAF6F9741E050E0D4
:100AE000BE01625A7F4F80910F03909110030E94C4
:100AF00099136E961FAF6E9741E050E0BE01635AA6
:100B00007F4F80910F03909110030E949913A1963B
:100B10001FAEA19741E050E0BE01605A7F4F809127
:100B20000F03909110030E949913A0961FAEA097F7
:100B300041E050E0BE01615A7F4F80910F039091D8
:100B400010030E9499138091040110910501A3964E
:100B50008FAFA39741E050E0BE016E597F4F809167
:100B60000F03909110030E949913A2961FAFA297B2
:100B700041E050E0BE016F597F4F80910F0390918B
:100B800010030E949913A5961FAEA59741E050E06F
:100B9000BE016C597F4F80910F03909110030E940A
:100BA0009913A4961FAEA49741E050E0BE016D5981
:100BB0007F4F80910F03909110030E9499138091B1
:100BC000000110910101A7968FAFA79741E050E077
:100BD000BE016A597F4F80910F03909110030E94CC
:100BE0009913A6961FAFA69741E050E0BE016B593E
:100BF0007F4F80910F03909110030E949913A99643
:100C00001FAEA99741E050E0BE0168597F4F809127
:100C10000F03909110030E949913A8961FAEA897F6
:100C200041E050E0BE0169597F4F80910F039091E0
:100C300010030E949913E1961FAEE19741E050E046
:100C4000BE0160597F4F80910F03909110030E9465
:100C5000991380910F03909110030E94ED1320903F
:100C60000F03309010039BCED1011B968C918130E5
:100C700009F40DC181E86E968FAF6E9763E1C101F3
:100C80000E941813D8018C9180682F968FAF2F97F0
:100C900041E050E0BE01625B7F4F80910F03909175
:100CA00010030E949913F80181812E968FAF2E9721
:100CB00041E050E0BE01635B7F4F80910F03909154
:100CC00010030E949913D80112968C912D968FAF24
:100CD0002D9741E050E0BE01645B7F4F80910F0390
:100CE000909110030E94991341E050E0BE01635AB5
:100CF0007F4F80910F03909110030E9499131CAABB
:100D000041E050E0BE016C5C7F4F80910F039091F9
:100D100010030E9499131BAA41E050E0BE016D5CD4
:100D20007F4F80910F03909110030E9499131EAA88
:100D300041E050E0BE016A5C7F4F80910F039091CB
:100D400010030E9499131DAA41E050E0BE016B5CA4
:100D50007F4F80910F03909110030E94991318AE5A
:100D600041E050E0BE01685C7F4F80910F0390919D
:100D700010030E9499131FAA41E050E0BE01695C74
:100D80007F4F80910F03909110030E9499131AAE28
:100D900041E050E0BE01665C7F4F80910F0390916F
:100DA00010030E94991319AE41E050E0BE01675C48
:100DB0007F4F80910F03909110030E9499132C96FE
:100DC0001FAE2C9741E050E0BE01655B7F4F8091E4
:100DD0000F03909110030E9499131CAE41E050E064
:100DE000BE01645C7F4F80910F03909110030E94BD
:100DF00099131BAE41E050E0BE01655C7F4F8091CE
:100E00000F03909110030E94991380910F0390910A
:100E100010030E94ED13BFCD80910F03909110033A
:100E20000E94FB1180E090E0BDCDF10183809480B1
:100E3000A580B68080910A0390910B03A0910C03CA
:100E4000B0910D0388169906AA06BB0629F082E820
:100E50006E968FAF6E97D2CC2781308541855285B3
:100E6000EF962CAF3DAF4EAF5FAFEF978091080389
:100E700090910903A0E0B0E0281739074A075B0703
:100E800009F472C480E86E968FAF6E97B7CCF1010B
:100E9000C380D480E580F6808091020190910301A7
:100EA000A0E0B0E08C159D05AE05BF0528F482E8F2
:100EB0006E968FAF6E97E2CEF10187819085A18506
:100EC000B285892B8A2B8B2B29F080E86E968FAF09
:100ED0006E97D4CEA685B785E996BFAFAEAFE9973A
:100EE000AB2B29F083E86E968FAF6E97C7CEF101DA
:100EF0000484F585E02DE396FFAFEEAFE397E79628
:100F0000DFAECEAEE797C114D10409F40EC296014C
:100F10002150310911F40C94A710EAE8F0E0459053
:100F2000559065907490B301A201465F5F4F6F4F7B
:100F30007F4FFA01EE57FF4F8491882309F4FBC1DC
:100F400080E090E015C0389685909590A590B4907B
:100F5000BAE08B0E911CA11CB11C480D591D6A1DD5
:100F60007B1DFA01EE57FF4FA491AA2309F4E3C1B8
:100F700001962817390739F7309709F4DCC13896FC
:100F8000859194910A96E3962EAD3FADE39728178D
:100F9000390708F0C0C3E2966FADE2976D5EC101FC
:100FA0000E941813D8018C91806863968FAF639765
:100FB00041E050E0BE016E5A7F4F80910F03909147
:100FC00010030E949913F801818162968FAF629796
:100FD00041E050E0BE016F5A7F4F80910F03909126
:100FE00010030E949913D80112968C9161968FAFCD
:100FF000619741E050E0BE01605B7F4F80910F033D
:10100000909110030E94991360961FAE609741E083
:1010100050E0BE01615B7F4F80910F039091100300
:101020000E949913F10183819481A581B681009773
:10103000A105B10509F48FC30196209102013091F9
:1010400003012817390708F483C3192F8EA341E041
:1010500050E0BE016A5D7F4F80910F0390911003B5
:101060000E9499131DA341E050E0BE016B5D7F4FCC
:1010700080910F03909110030E94991318A641E0EC
:1010800050E0BE01685D7F4F80910F039091100387
:101090000E9499131FA241E050E0BE01695D7F4F9D
:1010A00080910F03909110030E949913D101139620
:1010B0004D915C9114974115510539F141505109F9
:1010C00021F1EAE8F0E085919591A591B4910A9615
:1010D000FC01EE57FF4F24912223B9F020E030E0CD
:1010E0002F5F3F4F4217530791F03896C590D59028
:1010F000E590F490BAE0CB0ED11C8C0D9D1DFC0147
:10110000EE57FF4F64916111EBCF80E090E0F10169
:1011100004851585080F191F08A341E050E0BE01A2
:10112000605E7F4F80910F03909110030E9499138E
:101130001F8F41E050E0BE01615E7F4F80910F0341
:10114000909110030E9499131AA241E050E0BE0151
:101150006E5D7F4F80910F03909110030E94991351
:1011600019A241E050E0BE016F5D7F4F80910F03F7
:10117000909110030E94991364961FAE649741E00A
:1011800050E0BE016D5A7F4F80910F039091100384
:101190000E949913D1011C968C911C971D961C914D
:1011A0008CA341E050E0BE016C5D7F4F80910F0346
:1011B000909110030E9499131BA341E050E0BE01DF
:1011C0006D5D7F4F80910F03909110030E949913E2
:1011D000F10167817085438154814115510549F1C1
:1011E0004150510931F1EAE8F0E085919591A591DE
:1011F000B4910A96FC01EE57FF4F24912223C9F0C7
:1012000020E030E02F5F3F4F4217530711F40C945A
:10121000A0103896C590D590E590F490FAE0CF0EE6
:10122000D11C8C0D9D1DFC01EE57FF4FA491A11107
:10123000E9CF00E010E0060F171FD1011C968D9139
:101240009C911D97892B09F1C12CD12CF601E00F3F
:10125000F11FEE57FF4FE4912596EFAF259741E040
:1012600050E0BE016C5B7F4F80910F0390911003A3
:101270000E949913FFEFCF1ADF0AD1011C968D91BE
:101280009C911D97C816D90608F380910F03909181
:1012900010030E94ED1381E080930E03F10143815E
:1012A00054816581768140930A0350930B036093C8
:1012B0000C0370930D034115510549F1415051093B
:1012C00031F1EAE8F0E085919591A591B4910A9603
:1012D000FC01EE57FF4F24912223C9F020E030E0BB
:1012E0002F5F3F4F4217530711F40C94901038961C
:1012F000C590D590E590F490BAE0CB0ED11C8C0D42
:101300009D1DFC01EE57FF4F64916111E9CFF10182
:1013100084859585E996EEACFFACE997E80EF91E59
:10132000F0920903E092080336CBE2E8F0E027CE22
:101330009601215031092115310509F4F3C1EAE87C
:10134000F0E0C590D590E590F4905AE0C50ED11C20
:10135000E11CF11CF601EE57FF4F84918823D1F078
:1013600080E090E001962817390709F4DDC138962E
:101370004591559165917491465F5F4F6F4F7F4FD7
:10138000C40ED51EE61EF71EF601EE57FF4F449120
:101390004111E8CF63E1C1010E941813D8018C917B
:1013A00080682A968FAF2A9741E050E0BE01675BC4
:1013B0007F4F80910F03909110030E949913F801C1
:1013C000818129968FAF299741E050E0BE01685B8B
:1013D0007F4F80910F03909110030E949913D801C1
:1013E00012968C9128968FAF289741E050E0BE016D
:1013F000695B7F4F80910F03909110030E949913B6
:1014000027961FAE279741E050E0BE016A5B7F4FF1
:1014100080910F03909110030E949913F101838131
:101420009481A581B6810097A105B10509F487C112
:10143000019620910201309103012817390708F421
:101440007BC1192F8AA741E050E0BE01665D7F4F46
:1014500080910F03909110030E94991319A741E006
:1014600050E0BE01675D7F4F80910F0390911003A4
:101470000E9499131CA641E050E0BE01645D7F4FBD
:1014800080910F03909110030E9499131BA641E0D5
:1014900050E0BE01655D7F4F80910F039091100376
:1014A0000E9499131EA641E050E0BE01625D7F4F8D
:1014B00080910F03909110030E9499131DA641E0A3
:1014C00050E0BE01635D7F4F80910F039091100348
:1014D0000E94991318AA41E050E0BE01605D7F4F61
:1014E00080910F03909110030E9499131FA641E071
:1014F00050E0BE01615D7F4F80910F03909110031A
:101500000E94991385E02B968FAF2B9741E050E016
:10151000BE01665B7F4F80910F03909110030E9484
:101520009913D10113964D915C9114974115510572
:1015300009F4E6C04150510909F4E2C0EAE8F0E0DC
:10154000C590D590E590F490BAE0CB0ED11CE11C8B
:10155000F11CF601EE57FF4F84918823D1F020E073
:1015600030E02F5F3F4F4217530709F4CBC0389646
:1015700085919591A591B4910A96A11DB11DC80EB2
:10158000D91EEA1EFB1EF601EE57FF4F8491811112
:10159000E8CF10E080E08AAB41E050E0BE016E5C35
:1015A0007F4F80910F03909110030E94991319AB04
:1015B00041E050E0BE016F5C7F4F80910F0390913E
:1015C00010030E949913F10183809480A580B68056
:1015D0008114910441F1A4014150510921F1EAE83B
:1015E000F0E00591159125913491065F1F4FF801A8
:1015F000EE57FF4F84918823B1F080E090E0019690
:101600004817590791F03896C590D590E590F49019
:10161000FAE0CF0ED11C0C0D1D1DF801EE57FF4F47
:1016200024912111ECCF00E010E0E12CF12CFAE83C
:10163000CF2EF0E0DF2E8114910409F45EC0B1E0FA
:101640008B1A910809F459C0F601459055906590A0
:101650007490EAE04E0E511C611C711CF201EE57B1
:10166000FF4F8491882309F4D0CB80E090E014C030
:1016700038964591559165917491465F5F4F6F4FD4
:101680007F4F440E551E661E771EF201EE57FF4F28
:101690002491222309F4B9CB01968816990641F7C3
:1016A000309709F4B2CB3896859194910A96E81652
:1016B000F90608F0AACBF801EE0DFF1DEE57FF4F1B
:1016C000E4912696EFAF269741E050E0BE016B5BB8
:1016D0007F4F80910F03909110030E9499132FEF79
:1016E000E21AF20AD10113968D909D90AD90BC90B4
:1016F00016978114910409F0A2CFE2E8F0E0D0CF70
:10170000E2E8F0E0309709F444CF3896859194915F
:101710000A96192F40CFE7964EAD5FADE797452B60
:1017200009F006CEE2E8F0E0309709F433CE3896BF
:1017300065917491635E2FCE10E080E083CE80913E
:101740000201909103010297B8F310E082E07ACE93
:1017500010E080E07BCC8091020190910301029720
:10176000B8F310E082E072CCF1010684F785E02D39
:10177000C158DF4FF983E883CF57D040EF2B31F0CA
:1017800083E86E968FAF6E970C94FE03D1011C9682
:101790000D90BC91A02DE796BFAFAEAFE7972A0F93
:1017A0003B1F411D511DEB962CAF3DAF4EAF5FAFC0
:1017B000EB97E3969FAE8EAEE397C401892B09F4B5
:1017C000F6C294012150310909F4F1C2EAE8CE2EA3
:1017D000E0E0DE2EF60185919591A591B4910A96EF
:1017E000FC01EE57FF4F44914423C1F040E050E02C
:1017F0004F5F5F4F2417350709F490C43896459022
:10180000559065907490FAE04F0E511C840D951D13
:10181000FC01EE57FF4F64916111EACF60E070E088
:10182000F60185919591A591B4912C013D015AE065
:10183000450E511C611C711CF201EE57FF4F849143
:101840008823D1F040E050E04F5F5F4F2417350709
:1018500009F45EC4389685919591A591B4910A9644
:10186000A11DB11D480E591E6A1E7B1EF201EE57C6
:10187000FF4F84918111E8CFCB01A0E0B0E0EB965F
:101880004CAD5DAD6EAD7FADEB97481759076A075C
:101890007B0708F4C1C2F60145905590659074909D
:1018A0005AE0450E511C611C711CF201EE57FF4FAE
:1018B00084918823D1F080E090E0019628173907C1
:1018C00009F441C438964591559165917491465FEC
:1018D0005F4F6F4F7F4F440E551E661E771EF201FD
:1018E000EE57FF4F44914111E8CF80E0F60145915A
:1018F000559165917491465F5F4FFA01EE57FF4F26
:1019000094919923C9F0A0E0B0E06F2D11962A17A9
:101910003B0709F42EC43896C590D590E590F49015
:101920007AE0C70ED11C4C0D5D1DFA01EE57FF4F3A
:1019300094919111EBCFF62E40E0EC969FADEC9791
:10194000491B4D5E642F680FC1010E941813D80116
:101950008C91806823968FAF239741E050E0BE01C1
:101960006E5B7F4F80910F03909110030E9499133B
:10197000F801818122968FAF229741E050E0BE01AD
:101980006F5B7F4F80910F03909110030E9499131A
:10199000D80112968C9121968FAF219741E050E0AB
:1019A000BE01605C7F4F80910F03909110030E94F5
:1019B00099131FAE41E050E0BE01615C7F4F809102
:1019C0000F03909110030E949913F1018381948178
:1019D000A581B6810097A105B10509F460C3019600
:1019E00020910201309103012817390708F455C3EB
:1019F000F82E192FFE8641E050E0BE01625F7F4F56
:101A000080910F03909110030E9499131D8741E06C
:101A100050E0BE01635F7F4F80910F0390911003F0
:101A20000E949913188A41E050E0BE01605F7F4F29
:101A300080910F03909110030E9499131F8641E03B
:101A400050E0BE01615F7F4F80910F0390911003C2
:101A50000E9499131A8A41E050E0BE016E5E7F4FEA
:101A600080910F03909110030E949913198A41E00D
:101A700050E0BE016F5E7F4F80910F039091100385
:101A80000E9499131C8A41E050E0BE016C5E7F4FBA
:101A900080910F03909110030E9499131B8A41E0DB
:101AA00050E0BE016D5E7F4F80910F039091100357
:101AB0000E94991384E024968FAF249741E050E070
:101AC000BE016D5B7F4F80910F03909110030E94C8
:101AD0009913D10113960D911C91149701151105BD
:101AE00009F4E7C298012150310909F4E2C24AE839
:101AF000C42E40E0D42EF601459055906590749028
:101B0000D301C2010A96A11DB11DFC01EE57FF4F82
:101B100044914423E1F040E050E04F5F5F4F2417D1
:101B2000350709F428C3389685909590A590B49010
:101B3000EAE08E0E911CA11CB11C880D991DAA1DF6
:101B4000BB1DFC01EE57FF4F64916111E6CF40E0F1
:101B500050E0F60185919591A591B4910A96FC010A
:101B6000EE57FF4F64916623C1F060E070E06F5F55
:101B70007F4F2617370709F4EEC23896C590D590E7
:101B8000E590F490FAE0CF0ED11C8C0D9D1DFC0168
:101B9000EE57FF4FA491A111EACFC158DF4F288122
:101BA0003981CF57D040420F531FD10117968D91E5
:101BB0009C9118978A01081B190B0C8741E050E093
:101BC000BE01645F7F4F80910F03909110030E94CC
:101BD00099131B8741E050E0BE01655F7F4F809104
:101BE0000F03909110030E949913F1018780908454
:101BF000A184B28484010E571F4FC12CD12C7601D1
:101C0000F101238134812115310509F4ABC0A9010B
:101C100041505109E3965FAF4EAFE397411551052F
:101C200009F4A0C06AE870E0E7967FAF6EAFE7976F
:101C3000FB0145905590659074907AE0470E511CD9
:101C4000611C711CF201EE57FF4F84918823F9F05B
:101C500080E090E0DA010196A817B90709F44BC2B9
:101C600038964591559165917491465F5F4F6F4FDE
:101C70007F4F440E551E661E771EF201EE57FF4F32
:101C800064916111E8CFE3964EAD5FADE397E596C1
:101C90001CAE1DAE1EAE1FAEE597E796EEADFFADD6
:101CA000E79785919591A591B4910A96FC01EE571D
:101CB000FF4F24912223C1F020E030E02F5F3F4FFF
:101CC0004217530709F41BC238964590559065900A
:101CD00074907AE0470E511C840D951DFC01EE575F
:101CE000FF4F64916111EACF80E090E0DC01E5965E
:101CF0002CAD3DAD4EAD5FADE59726013701EFEF61
:101D00004E1A5E0A6E0A7E0A820F931FA41FB51F29
:101D100088199909AA09BB09C816D906EA06FB065B
:101D200008F03BC0F80184918EAF41E050E0BE0165
:101D3000625C7F4F80910F03909110030E94991372
:101D4000D10117968D909D90AD90BC901A970F5F22
:101D50001F4F73016201F101238134812115310587
:101D600009F055CFE2E8F0E03896459054908AE0CB
:101D7000480E511CA20160E070E0E5964CAF5DAFEB
:101D80006EAF7FAFE5972115310509F0A7C180E05F
:101D900090E0DC019A01AB01B0CF80910F039091EC
:101DA00010030E94ED1310920E030C94CB0460E01C
:101DB00070E0E2E8F0E03896859194910A96860FFB
:101DC000971FA0E0B0E0EB962CAD3DAD4EAD5FAD02
:101DD000EB97281739074A075B07F0F0E3964EADFB
:101DE0005FADE397452B09F0A1C1E2E8F0E038963A
:101DF00085919491865FE3966EAD7FADE397672BF7
:101E000009F49ACD94012150310909F495CD6AE87D
:101E1000C62E60E0D62E6ACDE6966FADE6976D5E73
:101E2000C1010E941813D8018C9180686C968FAF05
:101E30006C9741E050E0BE01655A7F4F80910F03DF
:101E4000909110030E949913F80181816B968FAFD6
:101E50006B9741E050E0BE01665A7F4F80910F03BF
:101E6000909110030E949913D80112968C916A9652
:101E70008FAF6A9741E050E0BE01675A7F4F809173
:101E80000F03909110030E94991369961FAE6997F2
:101E900041E050E0BE01685A7F4F80910F0390915E
:101EA00010030E949913F10183819481A581B68169
:101EB0000097A105B10509F4E8C00196209102013F
:101EC000309103012817390708F4DDC0F92E8A8301
:101ED00041E050E0BE016E5F7F4F80910F03909113
:101EE00010030E949913F98241E050E0BE016F5F38
:101EF0007F4F80910F03909110030E9499131C82D1
:101F000041E050E0BE016C5F7F4F80910F039091E4
:101F100010030E9499131B8241E050E0BE016D5FE7
:101F20007F4F80910F03909110030E949913D1016C
:101F30001C968D919C911D971796CD90DD90ED90FC
:101F4000FC901A97C80ED91EE11CF11CCE8241E00C
:101F500050E0BE016A5F7F4F80910F0390911003A4
:101F60000E949913DD8241E050E0BE016B5F7F4F1C
:101F700080910F03909110030E9499136701EE2442
:101F8000FF24C88641E050E0BE01685F7F4F80912A
:101F90000F03909110030E949913DF8241E050E0FB
:101FA000BE01695F7F4F80910F03909110030E94E3
:101FB000991381E06D968FAF6D9741E050E0BE01BF
:101FC000645A7F4F80910F03909110030E949913E0
:101FD000F101848515858A8741E050E0BE01665F86
:101FE0007F4F80910F03909110030E9499131987DE
:101FF00041E050E0BE01675F7F4F80910F039091F9
:1020000010030E949913D10117960D911C911897F6
:102010001C968D919C911D97892BF9F0E12CF12C48
:10202000F701E00FF11FEE57FF4FE491EDAF41E0F4
:1020300050E0BE01635C7F4F80910F0390911003CD
:102040000E949913FFEFEF1AFF0AD1011C968D91A0
:102050009C911D97E816F90618F380910F03909153
:1020600010030E94ED1381E080930E03F10127819C
:10207000308584859585820F931F90930903809303
:1020800008030C94CB0480E022CF80910201909150
:1020900003010297C0F382E01ACF10E0ABCC80912D
:1020A0000201909103010297C0F310E052E0F52E77
:1020B000A1CCE2E8F0E0389645915491465F5F4F3D
:1020C0000115110509F469CD98012150310909F470
:1020D00049C09AE8C92E90E0D92E3BCDA9014150C4
:1020E000510909F401CE6AE870E0E7967FAF6EAF60
:1020F000E797FB01D6CD309709F036CEC4CDA0E0EE
:10210000B0E0E5962CAD3DAD4EAD5FADE597F5CDBC
:10211000309709F050CE80E090E051CEBC0180CBEA
:10212000E9969FAF8EAFE9970C94870994012150EF
:10213000310909F45ACE7AE8C72E70E0D72EABCB1E
:102140008C010C941B09309709F051CECECBE2E8FC
:10215000F0E00C94BC07C158DF4F99838883CF57B8
:10216000D0401BCDC158DF4F19821882CF57D040C5
:1021700014CDF62EE2CB309709F09DCFE8CC1F921C
:102180000F920FB60F9211242F933F938F939F932B
:10219000EF93FF933091C6008091930320919403B5
:1021A00090E0821B910901978F739927892B61F029
:1021B000E0919403F0E0ED5AFC4F3083809194035A
:1021C0008F5F8F7380939403FF91EF919F918F9115
:1021D0003F912F910F900FBE0F901F9018951F9257
:1021E0000F920FB60F9211242F938F939F93EF931B
:1021F000FF93809152032091510390E0821B91093B
:102200008F739927892B79F48091C1008F7D8093FA
:10221000C100FF91EF919F918F912F910F900FBE71
:102220000F901F901895E0915103F0E0EF5EFC4F86
:1022300080818093C600809151038F5F8F7380935C
:102240005103E7CF1092C00087E690E09093C5005D
:102250008093C400E1ECF0E088E1808386E0809325
:10226000C2008081806A808381E090E0089581E0EF
:102270000895809152038093510381E008958091E5
:1022800094032091930390E0821B91098F73992707
:10229000892B81F0E0919303F0E0ED5AFC4F8081AF
:1022A000FB018083809193038F5F8F7380939303EF
:1022B00081E0089580E008950FB607FC1FC080916B
:1022C00051032091520390E0821B910901978F7373
:1022D0009927892B01F1E0915203F0E0EF5EFC4F6A
:1022E0006083809152038F5F8F738093520380913C
:1022F000C10080628093C10081E008958091510304
:102300002091520390E0821B910901978F739927C6
:10231000892BA1F3E0CF80E008954115510539F1F3
:10232000FB01460F571F31910FB607FC22C0809169
:1023300051032091520390E0821B910901978F7302
:102340009927892B19F1A0915203B0E0AF5EBC4FE1
:102350003C93809152038F5F8F73809352038091DF
:10236000C10080628093C100E417F507E1F681E0C7
:102370000895809151032091520390E0821B9109AE
:1023800001978F739927892BA1F3DDCF80E0089502
:102390008091940390919303891B8F73089581E03A
:1023A000089541155105A1F0DB01640F751F292F18
:1023B00033275D91FC01E527FF27EE0FFF1FEA5F42
:1023C000FE4F80819181822793276A177B0779F7D7
:1023D0000895FB01EA57FF4F918380833197108264
:1023E00008958B579F4FFC0180810895FC01EB57A6
:1023F000FF4F108208950F931F93CF93DF931F9287
:10240000CDB7DEB78C01FC01EA57FF4FBE016F5F0D
:102410007F4F808191810E943F11882339F0E091A4
:1024200099038E2F90E08D30910530F00F90DF9161
:10243000CF911F910F910895FC01EC5CFF4F0C941C
:10244000331489818E3709F4DEC0109299030F90FE
:10245000DF91CF911F910F91089589818E3731F7C8
:1024600081E08093990341E050E0BE016F5F7F4FB0
:102470008FEF9FEF0E94D111F801EF57FF4F91832B
:102480008083D4CF8981813009F4CEC08E37E9F6BC
:10249000EACF89818530C8F290E004979093980341
:1024A0008093970384E080939903F801E058FF4FED
:1024B00010820F571F4F41E050E0BE016F5F7F4F0A
:1024C000F801808191810E94D111F801918380836C
:1024D000ADCF8981813009F0B8CF85E08093990331
:1024E000E8CF89818111B1CF86E080939903E1CF54
:1024F00089818111AACF87E080939903DACF8981FE
:10250000883C09F0A2CF88E080939903D2CF8981DB
:102510008D3709F474C08E3709F497CFF801E0586D
:10252000FF4F9081D801A90FB11D8C939F5F9083BD
:102530000F571F4F41E050E0BE016F5F7F4FF80122
:10254000808191810E94D111F801918380838091D3
:102550009703909198030197909398038093970322
:10256000892B09F063CF8AE0809399035FCF89813B
:1025700093EA980F923008F068CF805E8983F80163
:10258000E058FF4F9081D801A90FB11D8C939F5F38
:1025900090830F571F4F41E050E0BE016F5F7F4FA8
:1025A000F801808191810E94D111F801918380838B
:1025B000809197039091980301979093980380934B
:1025C000970328E020939903892B69F22FCF898103
:1025D00010929503809396038BE08093990326CF06
:1025E00029818091950390919603820F911D90937C
:1025F0009603809395038CE08093990317CF89E02D
:102600008093990313CFF801EF57FF4F2081318159
:1026100080919503909196032817390709F015CFFB
:10262000349681E0808311CF82E08093990341CF7B
:10263000DF92EF92FF920F931F93CF93DF9300D01F
:1026400000D000D0CDB7DEB76E838C010D571F4F81
:102650002FEF3FEFF801318320832EE72D837C019C
:10266000F6E8EF0EF11C6EE7F701808191810E9480
:102670005C1141E050E0BE016B5F7F4FF80180814B
:1026800091810E94D111F80191838083DD24D3943C
:10269000DD8261E0F701808191810E945C1141E05F
:1026A00050E0BE016B5F7F4FF801808191810E94F5
:1026B000D111F801918380836E81F701808191812E
:1026C0000E945C1141E050E0BE016A5F7F4FF8015B
:1026D000808191810E94D111F80191838083D982F8
:1026E0001A821B8288EC8C8344E050E0BE016F5F4D
:1026F0007F4FF701808191810E948D1144E050E06D
:10270000BE016F5F7F4FF801808191810E94D111DE
:10271000F8019183808326960FB6F894DEBF0FBE32
:10272000CDBFDF91CF911F910F91FF90EF90DF9080
:1027300008958F929F92AF92BF92CF92DF92EF92C5
:10274000FF920F931F93CF93DF937C015B016A018C
:102750004115510551F14B018B01040F151FEC017F
:10276000CA57DF4F0AC0888199810E945C11FFEF30
:102770008F1A9F0A80169106C1F0F401608183E8E8
:10278000860F823080F76DE7888199810E945C1105
:10279000F40160816052888199810E945C11FFEF91
:1027A0008F1A9F0A8016910641F7E701CD57DF4F38
:1027B000A601B501888199810E94D11199838883EE
:1027C000DF91CF911F910F91FF90EF90DF90CF900D
:1027D000BF90AF909F908F9008950F931F93CF93CA
:1027E000DF938C010D571F4FF8016181EC01CA572F
:1027F000DF4F888199810E945C11F8016081888196
:1028000099810E945C116EE788819981DF91CF9157
:102810001F910F910C945C118A579F4FFC0180818E
:1028200091810C94CF11CF93DF93CDB7DEB7C85809
:10283000D1090FB6F894DEBF0FBECDBF8FB7806849
:102840008FBF86E093E00E942211BE016F5F7F4F31
:1028500080E090E00E94E911CE0101960E947E0383
:102860000E94B103FDCFEE0FFF1F0590F491E02D04
:062870000994F894FFCF6B
:102876000314443100802500002F6465762F7074A0
:10288600732F32000414443000802500002F646545
:10289600762F7074732F320002060024F400010CA8
:0A28A60061746D656761333238001C
:1028B000880017003B060000891112239B32244632
:1028C000AD573665BF74488CC19D5AAFD3BE6CCA34
:1028D000E5DB7EE9F7F88110080193331A22A5564B
:1028E0002C47B7753E64C99C408DDBBF52AEEDDA14
:1028F00064CBFFF976E802218B301002991326672A
:10290000AF763444BD554AADC3BC588ED19F6EEBF3
:10291000E7FA7CC8F5D983310A2091121803A7770A
:102920002E66B5543C45CBBD42ACD99E508FEFFBD3
:1029300066EAFDD874C904428D5316619F70200465
:10294000A9153227BB364CCEC5DF5EEDD7FC6888B3
:10295000E1997AABF3BA85520C4397711E60A114CA
:102960002805B3373A26CDDE44CFDFFD56ECE99893
:102970006089FBBB72AA06638F7214409D512225A9
:10298000AB343006B9174EEFC7FE5CCCD5DD6AA973
:10299000E3B8788AF19B87730E6295501C41A3358A
:1029A0002A24B1163807CFFF46EEDDDC54CDEBB953
:1029B00062A8F99A708B088481951AA793B62CC2E5
:1029C000A5D33EE1B7F04008C919522BDB3A644E5B
:1029D000ED5F766DFF7C899400859BB712A6ADD222
:1029E00024C3BFF136E0C1184809D33B5A2AE55E3B
:1029F0006C4FF77D7E6C0AA583B4188691972EE301
:102A0000A7F23CC0B5D14229CB38500AD91B666F1A
:102A1000EF7E744CFD5D8BB502A499961087AFF3E1
:102A200026E2BDD034C1C3394A28D11A580BE77FFA
:102A30006E6EF55C7C4D0CC685D71EE597F428803C
:102A4000A1913AA3B3B2444ACD5B5669DF78600CDA
:102A5000E91D722FFB3E8DD604C79FF516E4A990A1
:102A60002081BBB332A2C55A4C4BD7795E68E11CBA
:102A7000680DF33F7A2E0EE787F61CC495D52AA180
:102A8000A3B03882B193466BCF7A5448DD59622D9A
:102A9000EB3C700EF91F8FF706E69DD414C5ABB161
:102AA00022A0B9923083C77B4E6AD5585C49E33D7A
:082AB0006A2CF11E780F0000F2
:00000001FF
