:100000000C9441000C945E000C945E000C945E0015
:100010000C945E000C945E000C945E000C945E00E8
:100020000C945E000C945E000C945E000C945E00D8
:100030000C945E000C945E000C945E000C945E00C8
:100040000C945E000C945E000C9460000C94900084
:100050000C945E000C945E000C945E000C945E00A8
:100060000C945E000C945E00CA01DF01F501B3013F
:1000700006020E0215021C022402540283028702A9
:10008000BE0111241FBECFEFD8E0DEBFCDBF13E00D
:10009000A0E0B1E0E8EEF7E002C005900D92A230DA
:1000A000B107D9F723E0A2E0B3E001C01D92A9385F
:1000B000B207E1F70E9491030C94D5030C94000061
:1000C0001F920F920FB60F9211242F933F938F938D
:1000D0009F93EF93FF933091C6008091840320910A
:1000E000850390E0821B910901978F739927892BD3
:1000F00061F0E0918503F0E0EC5BFC4F3083809190
:1001000085038F5F8F7380938503FF91EF919F919C
:100110008F913F912F910F900FBE0F901F901895C8
:100120001F920F920FB60F9211242F938F939F93CC
:10013000EF93FF93809143032091420390E0821B51
:1001400091098F739927892B79F48091C1008F7D54
:100150008093C100FF91EF919F918F912F910F900C
:100160000FBE0F901F901895E0914203F0E0EE5FF4
:10017000FC4F80818093C600809142038F5F8F7314
:1001800080934203E7CF1092C00087E690E09093FF
:10019000C5008093C400E1ECF0E088E1808386E054
:1001A0008093C2008081806A808381E090E008951E
:1001B00081E00895809143038093420381E0089594
:1001C000809185032091840390E0821B91098F73B5
:1001D0009927892B81F0E0918403F0E0EC5BFC4FE0
:1001E0008081FB018083809184038F5F8F73809374
:1001F000840381E0089580E008950FB607FC1FC0D6
:10020000809142032091430390E0821B9109019762
:100210008F739927892B01F1E0914303F0E0EE5FA2
:10022000FC4F6083809143038F5F8F738093430300
:100230008091C10080628093C10081E00895809127
:1002400042032091430390E0821B910901978F7331
:100250009927892BA1F3E0CF80E00895411551053E
:1002600039F1FB01460F571F31910FB607FC22C031
:10027000809142032091430390E0821B91090197F2
:100280008F739927892B19F1A0914303B0E0AE5FDA
:10029000BC4F3C93809143038F5F8F7380934303E4
:1002A0008091C10080628093C100E417F507E1F6F8
:1002B00081E00895809142032091430390E0821BE6
:1002C000910901978F739927892BA1F3DDCF80E0E6
:1002D00008958091850390918403891B8F730895FD
:1002E00081E0089541155105A1F0DB01640F751FF0
:1002F000292F33275D91FC01E527FF27EE0FFF1F14
:10030000E050FF4F80819181822793276A177B07F6
:1003100079F70895FB01EA57FF4F91838083319766
:10032000108208958B579F4FFC0180810895089596
:100330000F931F93CF93DF931F92CDB7DEB78C013E
:10034000FC01EA57FF4FBE016F5F7F4F80819181B3
:100350000E94E000882339F0E09188038E2F90E01E
:100360008D30910530F00F90DF91CF911F910F915B
:100370000895FC01EC5CFF4F0C94CF0389818E370C
:1003800009F4C9C0109288030F90DF91CF911F919B
:100390000F91089589818E3731F781E0809388032A
:1003A00041E050E0BE016F5F7F4F8FEF9FEF0E94F3
:1003B0007201F801EF57FF4F91838083D4CF898179
:1003C000813001F782E0809388030F571F4F41E08F
:1003D00050E0BE016F5F7F4FF801808191810E94E4
:1003E0007201F80191838083BECF8981853050F2FC
:1003F00090E00497909387038093860384E0809332
:100400008803F801E058FF4F1082DFCF89818130E7
:1004100009F0B8CF85E080938803D7CF8981811117
:10042000B1CF86E080938803D0CF89818111AACF94
:1004300087E080938803C9CF8981883C09F0A2CFE7
:1004400088E080938803C1CF89818D3709F469C022
:100450008E3709F497CFF801E058FF4F9081D8010B
:10046000A90FB11D8C939F5F90830F571F4F41E0E1
:1004700050E0BE016F5F7F4FF801808191810E9443
:100480007201F801918380838091860390918703A4
:1004900001979093870380938603892B09F063CF9C
:1004A0008AE0809388035FCF898193EA980F923026
:1004B00008F068CFF801E058FF4F9081D801A90FEC
:1004C000B11D805E8C939F5F90830F571F4F41E05B
:1004D00050E0BE016F5F7F4FF801808191810E94E3
:1004E0007201F80191838083809186039091870344
:1004F0000197909387038093860328E020938803D5
:10050000892B71F230CF8BE0809388032CCF8CE065
:100510008093880328CFF801EB57FF4F81E0808359
:1005200031CF89E0809388031ECFDF92EF92FF9254
:100530000F931F93CF93DF9300D000D000D0CDB79F
:10054000DEB76E838C010D571F4F2FEF3FEFF80181
:10055000318320832EE72D837C01F6E8EF0EF11C1A
:100560006EE7F701808191810E94FD0041E050E03B
:10057000BE016B5F7F4FF801808191810E94720103
:10058000F80191838083DD24D394DD8261E0F7015B
:10059000808191810E94FD0041E050E0BE016B5FCF
:1005A0007F4FF801808191810E947201F80191834F
:1005B00080836E81F701808191810E94FD0041E07E
:1005C00050E0BE016A5F7F4FF801808191810E94F7
:1005D0007201F80191838083D9821A821B8288EC90
:1005E0008C8344E050E0BE016F5F7F4FF701808154
:1005F00091810E942E0144E050E0BE016F5F7F4F69
:10060000F801808191810E947201F80191838083B9
:1006100026960FB6F894DEBF0FBECDBFDF91CF9107
:100620001F910F91FF90EF90DF9008958F929F920E
:10063000AF92BF92CF92DF92EF92FF920F931F93F0
:10064000CF93DF937C015B016A014115510559F19C
:100650004B018B01040F151FEC01CA57DF4F06C079
:10066000FFEF8F1A9F0A80169106E9F0F40160816E
:10067000888199810E94FD00F40180818D5782302C
:1006800078F76DE7888199810E94FD00F40160810F
:100690006052888199810E94FD00FFEF8F1A9F0AA6
:1006A0008016910619F7E701CD57DF4FA601B50176
:1006B000888199810E94720199838883DF91CF910B
:1006C0001F910F91FF90EF90DF90CF90BF90AF9070
:1006D0009F908F9008950F931F93CF93DF938C017A
:1006E0000D571F4FF8016181EC01CA57DF4F888118
:1006F00099810E94FD00F8016081888199810E94A2
:10070000FD006EE788819981DF91CF911F910F9154
:100710000C94FD008A579F4FFC01808191810C94BD
:100720007001CF93DF93CDB7DEB7C858D1090FB6AC
:10073000F894DEBF0FBECDBF8FB780688FBF80E05B
:1007400093E00E94C300BE016F5F7F4F80E090E0A6
:100750000E948A01CE0101960E94920181110AC075
:10076000CE0101960E949801CE0101960E9492014D
:100770008823B1F36EE0CE0101960E949502CE016E
:1007800001960E9497014AE050E0BC01CE0101961B
:100790000E941603CE0101960E946B03DBCFEE0F81
:0E07A000FF1F0590F491E02D0994F894FFCF0F
:1007AE000314443100802500002F6465762F707489
:1007BE00732F33000414443000802500002F64652D
:1007CE00762F7074732F330002060024F400010C90
:0A07DE0061746D6567613332380005
:1007E8000000891112239B322446AD573665BF7429
:1007F800488CC19D5AAFD3BE6CCAE5DB7EE9F7F8D9
:100808008110080193331A22A5562C47B7753E6408
:10081800C99C408DDBBF52AEEDDA64CBFFF976E8B8
:1008280002218B30100299132667AF763444BD55E8
:100838004AADC3BC588ED19F6EEBE7FA7CC8F5D998
:1008480083310A2091121803A7772E66B5543C45C8
:10085800CBBD42ACD99E508FEFFB66EAFDD874C978
:1008680004428D5316619F702004A9153227BB36A8
:100878004CCEC5DF5EEDD7FC6888E1997AABF3BA58
:1008880085520C4397711E60A1142805B3373A2688
:10089800CDDE44CFDFFD56ECE9986089FBBB72AA38
:1008A80006638F7214409D512225AB343006B91768
:1008B8004EEFC7FE5CCCD5DD6AA9E3B8788AF19B18
:1008C80087730E6295501C41A3352A24B116380748
:1008D800CFFF46EEDDDC54CDEBB962A8F99A708BF8
:1008E800088481951AA793B62CC2A5D33EE1B7F028
:1008F8004008C919522BDB3A644EED5F766DFF7CD8
:10090800899400859BB712A6ADD224C3BFF136E007
:10091800C1184809D33B5A2AE55E6C4FF77D7E6CB7
:100928000AA583B4188691972EE3A7F23CC0B5D1E7
:100938004229CB38500AD91B666FEF7E744CFD5D97
:100948008BB502A499961087AFF326E2BDD034C1C7
:10095800C3394A28D11A580BE77F6E6EF55C7C4D77
:100968000CC685D71EE597F42880A1913AA3B3B2A7
:10097800444ACD5B5669DF78600CE91D722FFB3E57
:100988008DD604C79FF516E4A9902081BBB332A287
:10099800C55A4C4BD7795E68E11C680DF33F7A2E37
:1009A8000EE787F61CC495D52AA1A3B03882B19367
:1009B800466BCF7A5448DD59622DEB3C700EF91F17
:1009C8008FF706E69DD414C5ABB122A0B992308347
:1009D800C77B4E6AD5585C49E33D6A2CF11E780FF7
:0209E80000000D
:00000001FF
